:100000000C942A000C9447000C9447000C94470071
:100010000C9447000C9447000C9447000C94470044
:100020000C9447000C9447000C9447000C94470034
:100030000C9447000C94D5040C9447000C94470092
:100040000C9447000C9447000C9447000C94470014
:100050000C94470011241FBECFE5D8E0DEBFCDBF12
:1000600011E0A0E6B0E0E2E4FAE002C005900D92F3
:10007000A836B107D9F721E0A8E6B1E001C01D928A
:10008000AA36B207E1F70E9412030C941F050C94E4
:1000900000000F931F93CF93DF93E0E6F0E044E876
:1000A00050E081E021E030E061E070E02583908164
:1000B000913009F468C038F0923009F4C4C093302C
:1000C00009F421C180C19281913059F59AB38B0115
:1000D000018002C0000F111F0A94E2F7092B0ABB2E
:1000E0009381913061F49BB38B01018002C0000FBA
:1000F000111F0A94E2F7D801A92BABBB66C191117D
:100100000DC0CBB38B01018002C0000F111F0A94F8
:10011000E2F7902F90959C239BBB57C11582832FAC
:1001200054C191112DC0CAB38B01018002C0000FD0
:10013000111F0A94E2F7902F90959C239ABB94810B
:10014000913061F49BB3EB01018002C0CC0FDD1F45
:100150000A94E2F7DE01A92BABBB37C191110DC0A8
:10016000CBB38B01018002C0000F111F0A94E2F78C
:10017000902F90959C239BBB28C11582832F25C16E
:100180001582832F22C19281913059F597B38B014B
:10019000018002C0000F111F0A94E2F7092B07BB70
:1001A0009381913061F498B3EB01018002C0CC0FD0
:1001B000DD1F0A94E2F7DE01A92BA8BB06C191114D
:1001C0000DC0C8B38B01018002C0000F111F0A943B
:1001D000E2F7902F90959C2398BBF7C01582832F50
:1001E000F4C091112DC0C7B38B01018002C0000F74
:1001F000111F0A94E2F7902F90959C2397BB94814E
:10020000913061F498B3EB01018002C0CC0FDD1F87
:100210000A94E2F7DE01A92BA8BBD7C091110DC04B
:10022000C8B38B01018002C0000F111F0A94E2F7CE
:10023000902F90959C2398BBC8C01582832FC5C072
:100240001582832FC2C09281913059F594B38B01EE
:10025000018002C0000F111F0A94E2F7092B04BBB2
:100260009381913061F495B3EB01018002C0CC0F12
:10027000DD1F0A94E2F7DE01A92BA5BBA6C09111F0
:100280000DC0C5B38B01018002C0000F111F0A947D
:10029000E2F7902F90959C2395BB97C01582832FF2
:1002A00094C091112DC0C4B38B01018002C0000F16
:1002B000111F0A94E2F7902F90959C2394BB948190
:1002C000913061F495B3EB01018002C0CC0FDD1FCA
:1002D0000A94E2F7DE01A92BA5BB77C091110DC0EE
:1002E000C5B38B01018002C0000F111F0A94E2F711
:1002F000902F90959C2395BB68C01582832F65C075
:100300001582832F62C09281913059F591B38B0190
:10031000018002C0000F111F0A94E2F7092B01BBF4
:100320009381913061F492B3EB01018002C0CC0F54
:10033000DD1F0A94E2F7DE01A92BA2BB46C0911192
:100340000DC0C2B38B01018002C0000F111F0A94BF
:10035000E2F7902F90959C2392BB37C01582832F94
:1003600034C091112DC0C1B38B01018002C0000FB8
:10037000111F0A94E2F7902F90959C2391BB9481D2
:10038000913061F492B3EB01018002C0CC0FDD1F0C
:100390000A94E2F7DE01A92BA2BB17C091110DC090
:1003A000C2B38B01018002C0000F111F0A94E2F753
:1003B000902F90959C2392BB08C01582832F05C077
:1003C0001582832F02C01582832F3696E417F50716
:1003D00009F06CCEDF91CF911F910F910895863077
:1003E00008F0EBC090E0FC01EE0FFF1FE80FF91FD3
:1003F000EE0FFF1FE05AFF4F2581213009F0DFC0CB
:10040000FC01EE0FFF1FE80FF91FEE0FFF1FE05A70
:10041000FF4F2281213009F0D4C0FC01EE0FFF1FF5
:10042000E80FF91FEE0FFF1FE05AFF4F2081213028
:10043000B9F138F0223009F462C0233009F48EC0DB
:10044000C2C06130B1F42BB3FC01EE0FFF1FE80F07
:10045000F91FEE0FFF1FE05AFF4F81E090E001808F
:1004600002C0880F991F0A94E2F7822B8BBB81E0B0
:1004700008952BB3FC01EE0FFF1FE80FF91FEE0FDD
:10048000FF1FE05AFF4F81E090E0018002C0880F1B
:10049000991F0A94E2F7809582238BBB81E008952F
:1004A0006130B1F428B3FC01EE0FFF1FE80FF91F14
:1004B000EE0FFF1FE05AFF4F81E090E0018002C085
:1004C000880F991F0A94E2F7822B88BB81E0089578
:1004D00028B3FC01EE0FFF1FE80FF91FEE0FFF1FFF
:1004E000E05AFF4F81E090E0018002C0880F991F21
:1004F0000A94E2F78095822388BB81E008956130F9
:10050000B1F425B3FC01EE0FFF1FE80FF91FEE0F4A
:10051000FF1FE05AFF4F81E090E0018002C0880F8A
:10052000991F0A94E2F7822B85BB81E0089525B3D9
:10053000FC01EE0FFF1FE80FF91FEE0FFF1FE05A3F
:10054000FF4F81E090E0018002C0880F991F0A945C
:10055000E2F78095822385BB81E008956130B1F494
:1005600022B3FC01EE0FFF1FE80FF91FEE0FFF1F74
:10057000E05AFF4F81E090E0018002C0880F991F90
:100580000A94E2F7822B82BB81E0089522B3FC013A
:10059000EE0FFF1FE80FF91FEE0FFF1FE05AFF4F8E
:1005A00081E090E0018002C0880F991F0A94E2F771
:1005B0008095822382BB81E0089580E0089580E0E9
:1005C000089580E0089581E00895823739F480E04D
:1005D0000E94380481E00E9438040895863639F478
:1005E00080E00E94380481E00E945604089582361B
:1005F00039F481E00E94380480E00E945604089596
:100600008C3639F480E00E94560481E00E94560442
:100610000895833731F480E00E94740481E00E94E1
:1006200074040895F8940E94C0032FE382E49FE0CD
:10063000215080409040E1F700C0000045EE52E0BC
:1006400060E875E280E090E00E9492042FE38DE084
:1006500093E0215080409040E1F700C0000088E81E
:1006600090E00E94C6042FE38DE093E0215080408B
:100670009040E1F700C000008DE890E00E94C604C1
:100680002FE38DE093E0215080409040E1F700C0DF
:10069000000086E990E00E94C6042FE38DE093E01D
:1006A000215080409040E1F700C0000086EA90E0D1
:1006B0000E94C6042FE38DE093E0215080409040DB
:1006C000E1F700C0000087EC90E00E94C6042FE331
:1006D0008DE093E0215080409040E1F700C00000A1
:1006E0008AEE90E00E94C6042FE38DE093E0215053
:1006F00080409040E1F700C0000085EF90E00E944C
:10070000C6042FE38DE093E0215080409040E1F754
:1007100000C0000080E191E00E94C6042FE38DE05C
:1007200093E0215080409040E1F700C000008AEE45
:1007300090E00E94C6042FE38DE093E021508040BA
:100740009040E1F700C0000083E491E00E94C604FD
:100750002FE38DE093E0215080409040E1F700C00E
:10076000000081E591E00E94C6042FE38DE093E054
:10077000215080409040E1F700C000007894FFCF06
:10078000FF920F931F93CF93DF930E944900C4E819
:10079000D0E008E810E0FF24F3948881882319F062
:1007A000813019F144C08981813069F018F08230BC
:1007B00099F04FC060E081E00E94EF0160E082E0CC
:1007C0000E94EF0149C061E081E00E94EF0160E01A
:1007D00082E00E94EF0140C060E081E00E94EF01F2
:1007E00061E082E00E94EF0137C08981813069F0C9
:1007F00018F0823099F02FC060E083E00E94EF0192
:1008000060E084E00E94EF0127C061E083E00E9485
:10081000EF0160E084E00E94EF011EC060E083E031
:100820000E94EF0161E084E00E94EF0115C060E0EA
:1008300081E00E94EF0160E082E00E94EF0160E051
:1008400083E00E94EF0160E084E00E94EF01F12C60
:1008500003C0F12C01C0F12C2296C017D10709F07A
:100860009CCF8F2DDF91CF911F910F91FF90089515
:100870008230C0F481110AC061E081E00E94EF0182
:1008800060E082E00E94EF0181E00895813061F430
:1008900061E083E00E94EF0160E084E00E94EF01EC
:1008A00081E0089580E0089580E008958230C0F4EA
:1008B00081110AC060E081E00E94EF0161E082E006
:1008C0000E94EF0181E00895813061F460E083E0EF
:1008D0000E94EF0161E084E00E94EF0181E0089551
:1008E00080E0089580E008958230C0F481110AC04C
:1008F00060E081E00E94EF0160E082E00E94EF0191
:1009000081E00895813061F460E083E00E94EF01AE
:1009100060E084E00E94EF0181E0089580E00895A6
:1009200080E00895CF93DF93EA0126E820BDDC0143
:10093000CB01880F991FAA1FBB1F880F991FAA1FE1
:10094000BB1F9C01AD01220F331F441F551F220FF7
:10095000331F441F551F60E072E18AE790E00E9458
:10096000FD04215031098AB188618AB9209729F0A4
:10097000D0936901C0936801579A30BD29B9DF91BE
:10098000CF9108955D9BFECF8CB90895CF93DF93EF
:10099000EC018881882331F021960E94C20489915C
:1009A0008111FBCFDF91CF9108951F920F920FB667
:1009B0000F9211242F933F934F935F936F937F93E5
:1009C0008F939F93AF93BF93EF93FF938CB1E0917D
:1009D0006801F09169010995FF91EF91BF91AF9185
:1009E0009F918F917F916F915F914F913F912F9147
:1009F0000F900FBE0F901F901895A1E21A2EAA1B00
:100A0000BB1BFD010DC0AA1FBB1FEE1FFF1FA217BE
:100A1000B307E407F50720F0A21BB30BE40BF50BBB
:100A2000661F771F881F991F1A9469F76095709544
:100A3000809590959B01AC01BD01CF010895F8947C
:020A4000FFCFE6
:100A420003040101FF0103020100FF01030301008E
:100A5200FF0103060100FF0103070100FF01030577
:100A62000101FF010000010041540D0A0041542B15
:100A72005253540D0A0041542B43574D4F44455F86
:100A82004445463D330041542B43575341505F4444
:100A920045463D57454C4C2C313233343536373888
:100AA2002C352C330D0A0041542B43574A41505FD9
:100AB2004445463D537072696E74732C247072699A
:100AC2006E7424323031390D0A0041542B434946A9
:100AD20053520D0A0041542B554152545F4445462E
:100AE2003D393630302C382C312C302C300D0A0068
:100AF20041542B4349505354413D3139322E313602
:100B0200382E312E31302C3139322E3136382E31C9
:100B12002E312C3235352E3235352E3235352E30BA
:100B22000D0A0041542B4349504D55583D310D0A91
:100B32000041542B4349505345525645523D312CA6
:080B4200313233340D0A0000CA
:00000001FF
